{
  "_format": "hh-sol-artifact-1",
  "contractName": "Voting",
  "sourceName": "contracts/Voting.sol",
  "abi": [
    {
      "anonymous": false,
      "inputs": [
        {
          "indexed": true,
          "internalType": "address",
          "name": "previousOwner",
          "type": "address"
        },
        {
          "indexed": true,
          "internalType": "address",
          "name": "newOwner",
          "type": "address"
        }
      ],
      "name": "OwnershipTransferred",
      "type": "event"
    },
    {
      "anonymous": false,
      "inputs": [
        {
          "indexed": false,
          "internalType": "uint256",
          "name": "proposalId",
          "type": "uint256"
        }
      ],
      "name": "ProposalRegistered",
      "type": "event"
    },
    {
      "anonymous": false,
      "inputs": [
        {
          "indexed": false,
          "internalType": "address",
          "name": "voter",
          "type": "address"
        },
        {
          "indexed": false,
          "internalType": "uint256",
          "name": "proposalId",
          "type": "uint256"
        }
      ],
      "name": "Voted",
      "type": "event"
    },
    {
      "anonymous": false,
      "inputs": [
        {
          "indexed": false,
          "internalType": "address",
          "name": "voterAddress",
          "type": "address"
        }
      ],
      "name": "VoterRegistered",
      "type": "event"
    },
    {
      "anonymous": false,
      "inputs": [
        {
          "indexed": false,
          "internalType": "enum Voting.WorkflowStatus",
          "name": "previousStatus",
          "type": "uint8"
        },
        {
          "indexed": false,
          "internalType": "enum Voting.WorkflowStatus",
          "name": "newStatus",
          "type": "uint8"
        }
      ],
      "name": "WorkflowStatusChange",
      "type": "event"
    },
    {
      "inputs": [
        {
          "internalType": "string",
          "name": "_desc",
          "type": "string"
        }
      ],
      "name": "addProposal",
      "outputs": [],
      "stateMutability": "nonpayable",
      "type": "function"
    },
    {
      "inputs": [
        {
          "internalType": "address",
          "name": "_addr",
          "type": "address"
        }
      ],
      "name": "addVoter",
      "outputs": [],
      "stateMutability": "nonpayable",
      "type": "function"
    },
    {
      "inputs": [],
      "name": "endProposalsRegistering",
      "outputs": [],
      "stateMutability": "nonpayable",
      "type": "function"
    },
    {
      "inputs": [],
      "name": "endVotingSession",
      "outputs": [],
      "stateMutability": "nonpayable",
      "type": "function"
    },
    {
      "inputs": [
        {
          "internalType": "uint256",
          "name": "_id",
          "type": "uint256"
        }
      ],
      "name": "getOneProposal",
      "outputs": [
        {
          "components": [
            {
              "internalType": "string",
              "name": "description",
              "type": "string"
            },
            {
              "internalType": "uint256",
              "name": "voteCount",
              "type": "uint256"
            }
          ],
          "internalType": "struct Voting.Proposal",
          "name": "",
          "type": "tuple"
        }
      ],
      "stateMutability": "view",
      "type": "function"
    },
    {
      "inputs": [
        {
          "internalType": "address",
          "name": "_addr",
          "type": "address"
        }
      ],
      "name": "getVoter",
      "outputs": [
        {
          "components": [
            {
              "internalType": "bool",
              "name": "isRegistered",
              "type": "bool"
            },
            {
              "internalType": "bool",
              "name": "hasVoted",
              "type": "bool"
            },
            {
              "internalType": "uint256",
              "name": "votedProposalId",
              "type": "uint256"
            },
            {
              "internalType": "uint256",
              "name": "nbProposals",
              "type": "uint256"
            }
          ],
          "internalType": "struct Voting.Voter",
          "name": "",
          "type": "tuple"
        }
      ],
      "stateMutability": "view",
      "type": "function"
    },
    {
      "inputs": [],
      "name": "owner",
      "outputs": [
        {
          "internalType": "address",
          "name": "",
          "type": "address"
        }
      ],
      "stateMutability": "view",
      "type": "function"
    },
    {
      "inputs": [],
      "name": "renounceOwnership",
      "outputs": [],
      "stateMutability": "nonpayable",
      "type": "function"
    },
    {
      "inputs": [
        {
          "internalType": "uint256",
          "name": "_id",
          "type": "uint256"
        }
      ],
      "name": "setVote",
      "outputs": [],
      "stateMutability": "nonpayable",
      "type": "function"
    },
    {
      "inputs": [],
      "name": "startProposalsRegistering",
      "outputs": [],
      "stateMutability": "nonpayable",
      "type": "function"
    },
    {
      "inputs": [],
      "name": "startVotingSession",
      "outputs": [],
      "stateMutability": "nonpayable",
      "type": "function"
    },
    {
      "inputs": [],
      "name": "tallyVotes",
      "outputs": [],
      "stateMutability": "nonpayable",
      "type": "function"
    },
    {
      "inputs": [
        {
          "internalType": "address",
          "name": "newOwner",
          "type": "address"
        }
      ],
      "name": "transferOwnership",
      "outputs": [],
      "stateMutability": "nonpayable",
      "type": "function"
    },
    {
      "inputs": [],
      "name": "winningProposalID",
      "outputs": [
        {
          "internalType": "uint256",
          "name": "",
          "type": "uint256"
        }
      ],
      "stateMutability": "view",
      "type": "function"
    },
    {
      "inputs": [],
      "name": "workflowStatus",
      "outputs": [
        {
          "internalType": "enum Voting.WorkflowStatus",
          "name": "",
          "type": "uint8"
        }
      ],
      "stateMutability": "view",
      "type": "function"
    }
  ],
  "bytecode": "0x60806040523480156200001157600080fd5b5062000032620000266200003860201b60201c565b6200004060201b60201c565b62000104565b600033905090565b60008060009054906101000a900473ffffffffffffffffffffffffffffffffffffffff169050816000806101000a81548173ffffffffffffffffffffffffffffffffffffffff021916908373ffffffffffffffffffffffffffffffffffffffff1602179055508173ffffffffffffffffffffffffffffffffffffffff168173ffffffffffffffffffffffffffffffffffffffff167f8be0079c531659141344cd1fd0a4f28419497f9722a3daafe3b4186f6b6457e060405160405180910390a35050565b6125e980620001146000396000f3fe608060405234801561001057600080fd5b50600436106100f55760003560e01c8063a7bfab1611610097578063d4f50f9811610066578063d4f50f98146101ee578063ee74c6781461021e578063f2fde38b14610228578063f4ab9adf14610244576100f5565b8063a7bfab16146101b2578063bdc01431146101bc578063c7038a4e146101da578063c88af42f146101e4576100f5565b8063715018a6116100d3578063715018a61461013c5780638da5cb5b14610146578063a1edffa214610164578063a2788cce14610182576100f5565b8063230796ae146100fa5780632fdae3c514610116578063378a217814610132575b600080fd5b610114600480360381019061010f9190611540565b610260565b005b610130600480360381019061012b91906115d2565b61055b565b005b61013a6108bc565b005b610144610a29565b005b61014e610a3d565b60405161015b9190611660565b60405180910390f35b61016c610a66565b60405161017991906116f2565b60405180910390f35b61019c60048036038101906101979190611540565b610a79565b6040516101a991906117e9565b60405180910390f35b6101ba610be0565b005b6101c4610cc6565b6040516101d1919061181a565b60405180910390f35b6101e2610ccc565b005b6101ec610e47565b005b61020860048036038101906102039190611861565b610f2c565b60405161021591906118fe565b60405180910390f35b61022661105e565b005b610242600480360381019061023d9190611861565b611144565b005b61025e60048036038101906102599190611861565b6111c7565b005b600460003373ffffffffffffffffffffffffffffffffffffffff1673ffffffffffffffffffffffffffffffffffffffff16815260200190815260200160002060000160009054906101000a900460ff166102ef576040517f08c379a00000000000000000000000000000000000000000000000000000000081526004016102e690611976565b60405180910390fd5b600360058111156103035761030261167b565b5b600260009054906101000a900460ff1660058111156103255761032461167b565b5b14610365576040517f08c379a000000000000000000000000000000000000000000000000000000000815260040161035c90611a08565b60405180910390fd5b60011515600460003373ffffffffffffffffffffffffffffffffffffffff1673ffffffffffffffffffffffffffffffffffffffff16815260200190815260200160002060000160019054906101000a900460ff161515036103fb576040517f08c379a00000000000000000000000000000000000000000000000000000000081526004016103f290611a74565b60405180910390fd5b6003805490508110610442576040517f08c379a000000000000000000000000000000000000000000000000000000000815260040161043990611ae0565b60405180910390fd5b80600460003373ffffffffffffffffffffffffffffffffffffffff1673ffffffffffffffffffffffffffffffffffffffff168152602001908152602001600020600101819055506001600460003373ffffffffffffffffffffffffffffffffffffffff1673ffffffffffffffffffffffffffffffffffffffff16815260200190815260200160002060000160016101000a81548160ff021916908315150217905550600381815481106104f8576104f7611b00565b5b9060005260206000209060020201600101600081548092919061051a90611b5e565b91905055507f4d99b957a2bc29a30ebd96a7be8e68fe50a3c701db28a91436490b7d53870ca43382604051610550929190611ba6565b60405180910390a150565b600460003373ffffffffffffffffffffffffffffffffffffffff1673ffffffffffffffffffffffffffffffffffffffff16815260200190815260200160002060000160009054906101000a900460ff166105ea576040517f08c379a00000000000000000000000000000000000000000000000000000000081526004016105e190611976565b60405180910390fd5b600160058111156105fe576105fd61167b565b5b600260009054906101000a900460ff1660058111156106205761061f61167b565b5b14610660576040517f08c379a000000000000000000000000000000000000000000000000000000000815260040161065790611c1b565b60405180910390fd5b60405160200161066f90611c61565b604051602081830303815290604052805190602001208282604051602001610698929190611cbd565b60405160208183030381529060405280519060200120036106ee576040517f08c379a00000000000000000000000000000000000000000000000000000000081526004016106e590611d53565b60405180910390fd5b6014600460003373ffffffffffffffffffffffffffffffffffffffff1673ffffffffffffffffffffffffffffffffffffffff168152602001908152602001600020600201541115610774576040517f08c379a000000000000000000000000000000000000000000000000000000000815260040161076b90611de5565b60405180910390fd5b61077c6114ba565b82828080601f016020809104026020016040519081016040528093929190818152602001838380828437600081840152601f19601f8201169050808301925050505050505081600001819052506003819080600181540180825580915050600190039060005260206000209060020201600090919091909150600082015181600001908161080a9190612040565b50602082015181600101555050600460003373ffffffffffffffffffffffffffffffffffffffff1673ffffffffffffffffffffffffffffffffffffffff168152602001908152602001600020600201600081548092919061086a90611b5e565b91905055507f92e393e9b54e2f801d3ea4beb0c5e71a21cc34a5d34b77d0fb8a3aa1650dc18f60016003805490506108a29190612112565b6040516108af919061181a565b60405180910390a1505050565b6108c4611370565b600460058111156108d8576108d761167b565b5b600260009054906101000a900460ff1660058111156108fa576108f961167b565b5b1461093a576040517f08c379a0000000000000000000000000000000000000000000000000000000008152600401610931906121b8565b60405180910390fd5b600080600090505b6003805490508110156109b8576003828154811061096357610962611b00565b5b9060005260206000209060020201600101546003828154811061098957610988611b00565b5b90600052602060002090600202016001015411156109a5578091505b80806109b090611b5e565b915050610942565b50806001819055506005600260006101000a81548160ff021916908360058111156109e6576109e561167b565b5b02179055507f0a97a4ee45751e2abf3e4fc8946939630b11b371ea8ae39ccdc3056e98f5cc3f60046005604051610a1e9291906121d8565b60405180910390a150565b610a31611370565b610a3b60006113ee565b565b60008060009054906101000a900473ffffffffffffffffffffffffffffffffffffffff16905090565b600260009054906101000a900460ff1681565b610a816114ba565b600460003373ffffffffffffffffffffffffffffffffffffffff1673ffffffffffffffffffffffffffffffffffffffff16815260200190815260200160002060000160009054906101000a900460ff16610b10576040517f08c379a0000000000000000000000000000000000000000000000000000000008152600401610b0790611976565b60405180910390fd5b60038281548110610b2457610b23611b00565b5b9060005260206000209060020201604051806040016040529081600082018054610b4d90611e63565b80601f0160208091040260200160405190810160405280929190818152602001828054610b7990611e63565b8015610bc65780601f10610b9b57610100808354040283529160200191610bc6565b820191906000526020600020905b815481529060010190602001808311610ba957829003601f168201915b505050505081526020016001820154815250509050919050565b610be8611370565b60036005811115610bfc57610bfb61167b565b5b600260009054906101000a900460ff166005811115610c1e57610c1d61167b565b5b14610c5e576040517f08c379a0000000000000000000000000000000000000000000000000000000008152600401610c5590611a08565b60405180910390fd5b6004600260006101000a81548160ff02191690836005811115610c8457610c8361167b565b5b02179055507f0a97a4ee45751e2abf3e4fc8946939630b11b371ea8ae39ccdc3056e98f5cc3f60036004604051610cbc9291906121d8565b60405180910390a1565b60015481565b610cd4611370565b60006005811115610ce857610ce761167b565b5b600260009054906101000a900460ff166005811115610d0a57610d0961167b565b5b14610d4a576040517f08c379a0000000000000000000000000000000000000000000000000000000008152600401610d4190612273565b60405180910390fd5b6001600260006101000a81548160ff02191690836005811115610d7057610d6f61167b565b5b0217905550610d7d6114ba565b6040518060400160405280600781526020017f47454e4553495300000000000000000000000000000000000000000000000000815250816000018190525060038190806001815401808255809150506001900390600052602060002090600202016000909190919091506000820151816000019081610dfc9190612040565b506020820151816001015550507f0a97a4ee45751e2abf3e4fc8946939630b11b371ea8ae39ccdc3056e98f5cc3f60006001604051610e3c9291906121d8565b60405180910390a150565b610e4f611370565b60016005811115610e6357610e6261167b565b5b600260009054906101000a900460ff166005811115610e8557610e8461167b565b5b14610ec5576040517f08c379a0000000000000000000000000000000000000000000000000000000008152600401610ebc90612305565b60405180910390fd5b60028060006101000a81548160ff02191690836005811115610eea57610ee961167b565b5b02179055507f0a97a4ee45751e2abf3e4fc8946939630b11b371ea8ae39ccdc3056e98f5cc3f60016002604051610f229291906121d8565b60405180910390a1565b610f346114d4565b600460003373ffffffffffffffffffffffffffffffffffffffff1673ffffffffffffffffffffffffffffffffffffffff16815260200190815260200160002060000160009054906101000a900460ff16610fc3576040517f08c379a0000000000000000000000000000000000000000000000000000000008152600401610fba90611976565b60405180910390fd5b600460008373ffffffffffffffffffffffffffffffffffffffff1673ffffffffffffffffffffffffffffffffffffffff1681526020019081526020016000206040518060800160405290816000820160009054906101000a900460ff161515151581526020016000820160019054906101000a900460ff16151515158152602001600182015481526020016002820154815250509050919050565b611066611370565b6002600581111561107a5761107961167b565b5b600260009054906101000a900460ff16600581111561109c5761109b61167b565b5b146110dc576040517f08c379a00000000000000000000000000000000000000000000000000000000081526004016110d390612397565b60405180910390fd5b6003600260006101000a81548160ff021916908360058111156111025761110161167b565b5b02179055507f0a97a4ee45751e2abf3e4fc8946939630b11b371ea8ae39ccdc3056e98f5cc3f6002600360405161113a9291906121d8565b60405180910390a1565b61114c611370565b600073ffffffffffffffffffffffffffffffffffffffff168173ffffffffffffffffffffffffffffffffffffffff16036111bb576040517f08c379a00000000000000000000000000000000000000000000000000000000081526004016111b290612429565b60405180910390fd5b6111c4816113ee565b50565b6111cf611370565b600060058111156111e3576111e261167b565b5b600260009054906101000a900460ff1660058111156112055761120461167b565b5b14611245576040517f08c379a000000000000000000000000000000000000000000000000000000000815260040161123c906124bb565b60405180910390fd5b60011515600460008373ffffffffffffffffffffffffffffffffffffffff1673ffffffffffffffffffffffffffffffffffffffff16815260200190815260200160002060000160009054906101000a900460ff161515036112db576040517f08c379a00000000000000000000000000000000000000000000000000000000081526004016112d290612527565b60405180910390fd5b6001600460008373ffffffffffffffffffffffffffffffffffffffff1673ffffffffffffffffffffffffffffffffffffffff16815260200190815260200160002060000160006101000a81548160ff0219169083151502179055507fb6be2187d059cc2a55fe29e0e503b566e1e0f8c8780096e185429350acffd3dd816040516113659190611660565b60405180910390a150565b6113786114b2565b73ffffffffffffffffffffffffffffffffffffffff16611396610a3d565b73ffffffffffffffffffffffffffffffffffffffff16146113ec576040517f08c379a00000000000000000000000000000000000000000000000000000000081526004016113e390612593565b60405180910390fd5b565b60008060009054906101000a900473ffffffffffffffffffffffffffffffffffffffff169050816000806101000a81548173ffffffffffffffffffffffffffffffffffffffff021916908373ffffffffffffffffffffffffffffffffffffffff1602179055508173ffffffffffffffffffffffffffffffffffffffff168173ffffffffffffffffffffffffffffffffffffffff167f8be0079c531659141344cd1fd0a4f28419497f9722a3daafe3b4186f6b6457e060405160405180910390a35050565b600033905090565b604051806040016040528060608152602001600081525090565b604051806080016040528060001515815260200160001515815260200160008152602001600081525090565b600080fd5b600080fd5b6000819050919050565b61151d8161150a565b811461152857600080fd5b50565b60008135905061153a81611514565b92915050565b60006020828403121561155657611555611500565b5b60006115648482850161152b565b91505092915050565b600080fd5b600080fd5b600080fd5b60008083601f8401126115925761159161156d565b5b8235905067ffffffffffffffff8111156115af576115ae611572565b5b6020830191508360018202830111156115cb576115ca611577565b5b9250929050565b600080602083850312156115e9576115e8611500565b5b600083013567ffffffffffffffff81111561160757611606611505565b5b6116138582860161157c565b92509250509250929050565b600073ffffffffffffffffffffffffffffffffffffffff82169050919050565b600061164a8261161f565b9050919050565b61165a8161163f565b82525050565b60006020820190506116756000830184611651565b92915050565b7f4e487b7100000000000000000000000000000000000000000000000000000000600052602160045260246000fd5b600681106116bb576116ba61167b565b5b50565b60008190506116cc826116aa565b919050565b60006116dc826116be565b9050919050565b6116ec816116d1565b82525050565b600060208201905061170760008301846116e3565b92915050565b600081519050919050565b600082825260208201905092915050565b60005b8381101561174757808201518184015260208101905061172c565b60008484015250505050565b6000601f19601f8301169050919050565b600061176f8261170d565b6117798185611718565b9350611789818560208601611729565b61179281611753565b840191505092915050565b6117a68161150a565b82525050565b600060408301600083015184820360008601526117c98282611764565b91505060208301516117de602086018261179d565b508091505092915050565b6000602082019050818103600083015261180381846117ac565b905092915050565b6118148161150a565b82525050565b600060208201905061182f600083018461180b565b92915050565b61183e8161163f565b811461184957600080fd5b50565b60008135905061185b81611835565b92915050565b60006020828403121561187757611876611500565b5b60006118858482850161184c565b91505092915050565b60008115159050919050565b6118a38161188e565b82525050565b6080820160008201516118bf600085018261189a565b5060208201516118d2602085018261189a565b5060408201516118e5604085018261179d565b5060608201516118f8606085018261179d565b50505050565b600060808201905061191360008301846118a9565b92915050565b600082825260208201905092915050565b7f596f75277265206e6f74206120766f7465720000000000000000000000000000600082015250565b6000611960601283611919565b915061196b8261192a565b602082019050919050565b6000602082019050818103600083015261198f81611953565b9050919050565b7f566f74696e672073657373696f6e20686176656e74207374617274656420796560008201527f7400000000000000000000000000000000000000000000000000000000000000602082015250565b60006119f2602183611919565b91506119fd82611996565b604082019050919050565b60006020820190508181036000830152611a21816119e5565b9050919050565b7f596f75206861766520616c726561647920766f74656400000000000000000000600082015250565b6000611a5e601683611919565b9150611a6982611a28565b602082019050919050565b60006020820190508181036000830152611a8d81611a51565b9050919050565b7f50726f706f73616c206e6f7420666f756e640000000000000000000000000000600082015250565b6000611aca601283611919565b9150611ad582611a94565b602082019050919050565b60006020820190508181036000830152611af981611abd565b9050919050565b7f4e487b7100000000000000000000000000000000000000000000000000000000600052603260045260246000fd5b7f4e487b7100000000000000000000000000000000000000000000000000000000600052601160045260246000fd5b6000611b698261150a565b91507fffffffffffffffffffffffffffffffffffffffffffffffffffffffffffffffff8203611b9b57611b9a611b2f565b5b600182019050919050565b6000604082019050611bbb6000830185611651565b611bc8602083018461180b565b9392505050565b7f50726f706f73616c7320617265206e6f7420616c6c6f77656420796574000000600082015250565b6000611c05601d83611919565b9150611c1082611bcf565b602082019050919050565b60006020820190508181036000830152611c3481611bf8565b9050919050565b50565b6000611c4b600083611919565b9150611c5682611c3b565b600082019050919050565b60006020820190508181036000830152611c7a81611c3e565b9050919050565b82818337600083830152505050565b6000611c9c8385611919565b9350611ca9838584611c81565b611cb283611753565b840190509392505050565b60006020820190508181036000830152611cd8818486611c90565b90509392505050565b7f566f7573206e6520706f7576657a20706173206e65207269656e2070726f706f60008201527f7365720000000000000000000000000000000000000000000000000000000000602082015250565b6000611d3d602383611919565b9150611d4882611ce1565b604082019050919050565b60006020820190508181036000830152611d6c81611d30565b9050919050565b7f596f752063616e6e6f74206d616b65206d6f7265207468616e2032302070726f60008201527f706f73616c732e00000000000000000000000000000000000000000000000000602082015250565b6000611dcf602783611919565b9150611dda82611d73565b604082019050919050565b60006020820190508181036000830152611dfe81611dc2565b9050919050565b7f4e487b7100000000000000000000000000000000000000000000000000000000600052604160045260246000fd5b7f4e487b7100000000000000000000000000000000000000000000000000000000600052602260045260246000fd5b60006002820490506001821680611e7b57607f821691505b602082108103611e8e57611e8d611e34565b5b50919050565b60008190508160005260206000209050919050565b60006020601f8301049050919050565b600082821b905092915050565b600060088302611ef67fffffffffffffffffffffffffffffffffffffffffffffffffffffffffffffffff82611eb9565b611f008683611eb9565b95508019841693508086168417925050509392505050565b6000819050919050565b6000611f3d611f38611f338461150a565b611f18565b61150a565b9050919050565b6000819050919050565b611f5783611f22565b611f6b611f6382611f44565b848454611ec6565b825550505050565b600090565b611f80611f73565b611f8b818484611f4e565b505050565b5b81811015611faf57611fa4600082611f78565b600181019050611f91565b5050565b601f821115611ff457611fc581611e94565b611fce84611ea9565b81016020851015611fdd578190505b611ff1611fe985611ea9565b830182611f90565b50505b505050565b600082821c905092915050565b600061201760001984600802611ff9565b1980831691505092915050565b60006120308383612006565b9150826002028217905092915050565b6120498261170d565b67ffffffffffffffff81111561206257612061611e05565b5b61206c8254611e63565b612077828285611fb3565b600060209050601f8311600181146120aa5760008415612098578287015190505b6120a28582612024565b86555061210a565b601f1984166120b886611e94565b60005b828110156120e0578489015182556001820191506020850194506020810190506120bb565b868310156120fd57848901516120f9601f891682612006565b8355505b6001600288020188555050505b505050505050565b600061211d8261150a565b91506121288361150a565b92508282039050818111156121405761213f611b2f565b5b92915050565b7f43757272656e7420737461747573206973206e6f7420766f74696e672073657360008201527f73696f6e20656e64656400000000000000000000000000000000000000000000602082015250565b60006121a2602a83611919565b91506121ad82612146565b604082019050919050565b600060208201905081810360008301526121d181612195565b9050919050565b60006040820190506121ed60008301856116e3565b6121fa60208301846116e3565b9392505050565b7f5265676973746572696e672070726f706f73616c732063616e7420626520737460008201527f6172746564206e6f770000000000000000000000000000000000000000000000602082015250565b600061225d602983611919565b915061226882612201565b604082019050919050565b6000602082019050818103600083015261228c81612250565b9050919050565b7f5265676973746572696e672070726f706f73616c7320686176656e742073746160008201527f7274656420796574000000000000000000000000000000000000000000000000602082015250565b60006122ef602883611919565b91506122fa82612293565b604082019050919050565b6000602082019050818103600083015261231e816122e2565b9050919050565b7f5265676973746572696e672070726f706f73616c73207068617365206973206e60008201527f6f742066696e6973686564000000000000000000000000000000000000000000602082015250565b6000612381602b83611919565b915061238c82612325565b604082019050919050565b600060208201905081810360008301526123b081612374565b9050919050565b7f4f776e61626c653a206e6577206f776e657220697320746865207a65726f206160008201527f6464726573730000000000000000000000000000000000000000000000000000602082015250565b6000612413602683611919565b915061241e826123b7565b604082019050919050565b6000602082019050818103600083015261244281612406565b9050919050565b7f566f7465727320726567697374726174696f6e206973206e6f74206f70656e2060008201527f7965740000000000000000000000000000000000000000000000000000000000602082015250565b60006124a5602383611919565b91506124b082612449565b604082019050919050565b600060208201905081810360008301526124d481612498565b9050919050565b7f416c726561647920726567697374657265640000000000000000000000000000600082015250565b6000612511601283611919565b915061251c826124db565b602082019050919050565b6000602082019050818103600083015261254081612504565b9050919050565b7f4f776e61626c653a2063616c6c6572206973206e6f7420746865206f776e6572600082015250565b600061257d602083611919565b915061258882612547565b602082019050919050565b600060208201905081810360008301526125ac81612570565b905091905056fea2646970667358221220646b78df2c89b40c89d8355bfe30e0c632a241c48ea75414916c1cf20af5205464736f6c63430008110033",
  "linkReferences": {},
  "deployedLinkReferences": {}
}